{
  "address": "0x6A6da89A41e761d7d3AcAF950A46B82Ef69553F0",
  "abi": [
    {
      "inputs": [
        {
          "internalType": "contract IEAS",
          "name": "eas",
          "type": "address"
        },
        {
          "internalType": "bytes32",
          "name": "schema",
          "type": "bytes32"
        }
      ],
      "stateMutability": "nonpayable",
      "type": "constructor"
    },
    {
      "inputs": [],
      "name": "InvalidDappId",
      "type": "error"
    },
    {
      "inputs": [],
      "name": "InvalidEAS",
      "type": "error"
    },
    {
      "inputs": [],
      "name": "InvalidRatingUID",
      "type": "error"
    },
    {
      "inputs": [],
      "name": "InvalidSchemaUID",
      "type": "error"
    },
    {
      "inputs": [],
      "name": "InvalidStarRating",
      "type": "error"
    },
    {
      "anonymous": false,
      "inputs": [
        {
          "indexed": true,
          "internalType": "bytes32",
          "name": "ratingUid",
          "type": "bytes32"
        },
        {
          "indexed": true,
          "internalType": "address",
          "name": "revokedBy",
          "type": "address"
        },
        {
          "indexed": false,
          "internalType": "uint256",
          "name": "revokedAt",
          "type": "uint256"
        }
      ],
      "name": "DappRatingRevoked",
      "type": "event"
    },
    {
      "anonymous": false,
      "inputs": [
        {
          "indexed": true,
          "internalType": "bytes32",
          "name": "attestationId",
          "type": "bytes32"
        },
        {
          "indexed": true,
          "internalType": "bytes32",
          "name": "dappId",
          "type": "bytes32"
        },
        {
          "indexed": false,
          "internalType": "uint8",
          "name": "starRating",
          "type": "uint8"
        },
        {
          "indexed": false,
          "internalType": "string",
          "name": "reviewText",
          "type": "string"
        }
      ],
      "name": "DappRatingSubmitted",
      "type": "event"
    },
    {
      "anonymous": false,
      "inputs": [
        {
          "indexed": true,
          "internalType": "bytes32",
          "name": "dappId",
          "type": "bytes32"
        },
        {
          "indexed": false,
          "internalType": "string",
          "name": "name",
          "type": "string"
        },
        {
          "indexed": false,
          "internalType": "string",
          "name": "description",
          "type": "string"
        },
        {
          "indexed": false,
          "internalType": "string",
          "name": "url",
          "type": "string"
        },
        {
          "indexed": false,
          "internalType": "string",
          "name": "imageURL",
          "type": "string"
        },
        {
          "indexed": false,
          "internalType": "address",
          "name": "owner",
          "type": "address"
        },
        {
          "indexed": false,
          "internalType": "uint256",
          "name": "registrationTime",
          "type": "uint256"
        }
      ],
      "name": "DappRegistered",
      "type": "event"
    },
    {
      "inputs": [
        {
          "internalType": "bytes32",
          "name": "dappId",
          "type": "bytes32"
        },
        {
          "internalType": "uint8",
          "name": "starRating",
          "type": "uint8"
        },
        {
          "internalType": "string",
          "name": "reviewText",
          "type": "string"
        }
      ],
      "name": "addDappRating",
      "outputs": [
        {
          "internalType": "bytes32",
          "name": "",
          "type": "bytes32"
        }
      ],
      "stateMutability": "nonpayable",
      "type": "function"
    },
    {
      "inputs": [],
      "name": "dappCounter",
      "outputs": [
        {
          "internalType": "uint256",
          "name": "",
          "type": "uint256"
        }
      ],
      "stateMutability": "view",
      "type": "function"
    },
    {
      "inputs": [
        {
          "internalType": "bytes32",
          "name": "",
          "type": "bytes32"
        }
      ],
      "name": "dappIdIsRegistered",
      "outputs": [
        {
          "internalType": "bool",
          "name": "",
          "type": "bool"
        }
      ],
      "stateMutability": "view",
      "type": "function"
    },
    {
      "inputs": [
        {
          "internalType": "bytes32",
          "name": "dappId",
          "type": "bytes32"
        }
      ],
      "name": "isDappRegistered",
      "outputs": [
        {
          "internalType": "bool",
          "name": "",
          "type": "bool"
        }
      ],
      "stateMutability": "view",
      "type": "function"
    },
    {
      "inputs": [
        {
          "internalType": "string",
          "name": "_name",
          "type": "string"
        },
        {
          "internalType": "string",
          "name": "_description",
          "type": "string"
        },
        {
          "internalType": "string",
          "name": "_url",
          "type": "string"
        },
        {
          "internalType": "string",
          "name": "_imageURL",
          "type": "string"
        }
      ],
      "name": "registerDapp",
      "outputs": [],
      "stateMutability": "nonpayable",
      "type": "function"
    },
    {
      "inputs": [
        {
          "internalType": "bytes32",
          "name": "ratingUid",
          "type": "bytes32"
        }
      ],
      "name": "revokeDappRating",
      "outputs": [],
      "stateMutability": "nonpayable",
      "type": "function"
    }
  ],
  "transactionHash": "0x7d10be3770a7c42861818f02fe5c106a0214cb12b8d359eb8de016a32ad1cdb3",
  "args": [
    "0x4200000000000000000000000000000000000021",
    "0xeaa96eb7dd9a3101cabc983cfbfcacc1594c70832d37a79b51bc43db4e4e40fb"
  ],
  "numDeployments": 2,
  "solcInputHash": "8a3505743f1e1d07cb1b3bb84feada33",
  "bytecode": "0x60c060405234801561001057600080fd5b50604051610a1b380380610a1b83398101604081905261002f9161008a565b6001600160a01b038216610056576040516341bc07ff60e11b815260040160405180910390fd5b80610074576040516380d9b7d760e01b815260040160405180910390fd5b6001600160a01b0390911660805260a0526100c4565b6000806040838503121561009d57600080fd5b82516001600160a01b03811681146100b457600080fd5b6020939093015192949293505050565b60805160a0516109246100f7600039600081816102dc015261043c0152600081816102a2015261049e01526109246000f3fe608060405234801561001057600080fd5b50600436106100625760003560e01c80632447b4ac146100675780635080f8a21461007c5780635d6b87f9146100a2578063838c8f32146100b5578063ad26be0b146100e8578063cdb0d8631461010b575b600080fd5b61007a6100753660046105df565b610114565b005b61008f61008a36600461068c565b61022f565b6040519081526020015b60405180910390f35b61007a6100b03660046106eb565b610413565b6100d86100c33660046106eb565b60016020526000908152604090205460ff1681565b6040519015158152602001610099565b6100d86100f63660046106eb565b60009081526001602052604090205460ff1690565b61008f60005481565b6000826040516020016101279190610728565b60408051601f1981840301815291815281516020928301206000818152600190935291205490915060ff16156101b55760405162461bcd60e51b815260206004820152602960248201527f446170702077697468207468652073616d652055524c20616c726561647920726044820152681959da5cdd195c995960ba1b606482015260840160405180910390fd5b6000805490806101c483610744565b9091555050600081815260016020819052604091829020805460ff191690911790555181907fe47cda664139238d3d767e232d069056bad0aafd70a4ca41a5213f34dde097a79061022090889088908890889033904290610797565b60405180910390a25050505050565b600083158061024d575060008481526001602052604090205460ff16155b1561026b57604051630172951f60e01b815260040160405180910390fd5b60018360ff161080610280575060058360ff16115b1561029e576040516352b79ea360e01b815260040160405180910390fd5b60007f00000000000000000000000000000000000000000000000000000000000000006001600160a01b031663f17325e760405180604001604052807f000000000000000000000000000000000000000000000000000000000000000081526020016040518060c0016040528060006001600160a01b03168152602001600067ffffffffffffffff1681526020016001151581526020016000801b81526020018a8a8a60405160200161035393929190610803565b604051602081830303815290604052815260200160008152508152506040518263ffffffff1660e01b815260040161038b919061082e565b6020604051808303816000875af11580156103aa573d6000803e3d6000fd5b505050506040513d601f19601f820116820180604052508101906103ce91906108b1565b905084817fa7772ec4b89def345a0c116dedd194085f26c634cd44ecbfb0cbd51b06f3e1dd86866040516104039291906108ca565b60405180910390a3949350505050565b80610431576040516309e46d6b60e41b815260040160405180910390fd5b6040805180820182527f000000000000000000000000000000000000000000000000000000000000000081528151808301835283815260006020808301919091528083019182529251634692626760e01b81529151600483015251805160248301529091015160448201527f00000000000000000000000000000000000000000000000000000000000000006001600160a01b031690634692626790606401600060405180830381600087803b1580156104ea57600080fd5b505af11580156104fe573d6000803e3d6000fd5b50506040514281523392508391507f764fcaa8b2c6f1ba30688315d0db01c26b0d2a711b539acfe472ab46848d02b89060200160405180910390a350565b634e487b7160e01b600052604160045260246000fd5b600082601f83011261056357600080fd5b813567ffffffffffffffff8082111561057e5761057e61053c565b604051601f8301601f19908116603f011681019082821181831017156105a6576105a661053c565b816040528381528660208588010111156105bf57600080fd5b836020870160208301376000602085830101528094505050505092915050565b600080600080608085870312156105f557600080fd5b843567ffffffffffffffff8082111561060d57600080fd5b61061988838901610552565b9550602087013591508082111561062f57600080fd5b61063b88838901610552565b9450604087013591508082111561065157600080fd5b61065d88838901610552565b9350606087013591508082111561067357600080fd5b5061068087828801610552565b91505092959194509250565b6000806000606084860312156106a157600080fd5b83359250602084013560ff811681146106b957600080fd5b9150604084013567ffffffffffffffff8111156106d557600080fd5b6106e186828701610552565b9150509250925092565b6000602082840312156106fd57600080fd5b5035919050565b60005b8381101561071f578181015183820152602001610707565b50506000910152565b6000825161073a818460208701610704565b9190910192915050565b60006001820161076457634e487b7160e01b600052601160045260246000fd5b5060010190565b60008151808452610783816020860160208601610704565b601f01601f19169290920160200192915050565b60c0815260006107aa60c083018961076b565b82810360208401526107bc818961076b565b905082810360408401526107d0818861076b565b905082810360608401526107e4818761076b565b6001600160a01b03959095166080840152505060a00152949350505050565b83815260ff83166020820152606060408201526000610825606083018461076b565b95945050505050565b60208152815160208201526000602083015160408084015260018060a01b03815116606084015267ffffffffffffffff60208201511660808401526040810151151560a0840152606081015160c0840152608081015160c060e085015261089961012085018261076b565b905060a0820151610100850152809250505092915050565b6000602082840312156108c357600080fd5b5051919050565b60ff831681526040602082015260006108e6604083018461076b565b94935050505056fea2646970667358221220816558f1870100d3fe9b6b4e1d11b4611b02fa687d297cfbce30a175c5b9cb7e64736f6c63430008190033",
  "devdoc": {
    "kind": "dev",
    "methods": {
      "constructor": {
        "params": {
          "eas": "The address of the global EAS contract.",
          "schema": "The schema UID of the DappRatingSystem."
        }
      }
    },
    "version": 1
  },
  "userdoc": {
    "kind": "user",
    "methods": {
      "constructor": {
        "notice": "Creates a new DappRatingSystem instance."
      }
    },
    "version": 1
  },
  "storageLayout": {
    "storage": [
      {
        "astId": 508,
        "contract": "contracts/DappRatingSystem.sol:DappRatingSystem",
        "label": "dappCounter",
        "offset": 0,
        "slot": "0",
        "type": "t_uint256"
      },
      {
        "astId": 512,
        "contract": "contracts/DappRatingSystem.sol:DappRatingSystem",
        "label": "dappIdIsRegistered",
        "offset": 0,
        "slot": "1",
        "type": "t_mapping(t_bytes32,t_bool)"
      }
    ],
    "types": {
      "t_bool": {
        "encoding": "inplace",
        "label": "bool",
        "numberOfBytes": "1"
      },
      "t_bytes32": {
        "encoding": "inplace",
        "label": "bytes32",
        "numberOfBytes": "32"
      },
      "t_mapping(t_bytes32,t_bool)": {
        "encoding": "mapping",
        "key": "t_bytes32",
        "label": "mapping(bytes32 => bool)",
        "numberOfBytes": "32",
        "value": "t_bool"
      },
      "t_uint256": {
        "encoding": "inplace",
        "label": "uint256",
        "numberOfBytes": "32"
      }
    }
  }
}