{
  "address": "0x1c19673b56374F061B05F49d0e22257d8dA40657",
  "abi": [
    {
      "inputs": [
        {
          "internalType": "contract IEAS",
          "name": "eas",
          "type": "address"
        }
      ],
      "stateMutability": "nonpayable",
      "type": "constructor"
    },
    {
      "inputs": [],
      "name": "AccessDenied",
      "type": "error"
    },
    {
      "inputs": [],
      "name": "InsufficientValue",
      "type": "error"
    },
    {
      "inputs": [],
      "name": "InvalidEAS",
      "type": "error"
    },
    {
      "inputs": [],
      "name": "InvalidLength",
      "type": "error"
    },
    {
      "inputs": [],
      "name": "NotPayable",
      "type": "error"
    },
    {
      "anonymous": false,
      "inputs": [
        {
          "indexed": false,
          "internalType": "bytes32",
          "name": "projectId",
          "type": "bytes32"
        },
        {
          "indexed": false,
          "internalType": "address",
          "name": "raterAddress",
          "type": "address"
        },
        {
          "indexed": false,
          "internalType": "uint8",
          "name": "starRating",
          "type": "uint8"
        }
      ],
      "name": "ReviewRevoked",
      "type": "event"
    },
    {
      "anonymous": false,
      "inputs": [
        {
          "indexed": false,
          "internalType": "bytes32",
          "name": "projectId",
          "type": "bytes32"
        },
        {
          "indexed": false,
          "internalType": "address",
          "name": "raterAddress",
          "type": "address"
        },
        {
          "indexed": false,
          "internalType": "uint8",
          "name": "starRating",
          "type": "uint8"
        },
        {
          "indexed": false,
          "internalType": "string",
          "name": "reviewText",
          "type": "string"
        }
      ],
      "name": "ReviewSubmitted",
      "type": "event"
    },
    {
      "anonymous": false,
      "inputs": [
        {
          "indexed": false,
          "internalType": "bytes32",
          "name": "projectId",
          "type": "bytes32"
        },
        {
          "indexed": false,
          "internalType": "address",
          "name": "raterAddress",
          "type": "address"
        }
      ],
      "name": "UserAlreadyRatedProject",
      "type": "event"
    },
    {
      "anonymous": false,
      "inputs": [
        {
          "indexed": false,
          "internalType": "bytes32",
          "name": "projectId",
          "type": "bytes32"
        },
        {
          "indexed": false,
          "internalType": "address",
          "name": "raterAddress",
          "type": "address"
        }
      ],
      "name": "UserHasNotRatedProject",
      "type": "event"
    },
    {
      "inputs": [
        {
          "components": [
            {
              "internalType": "bytes32",
              "name": "uid",
              "type": "bytes32"
            },
            {
              "internalType": "bytes32",
              "name": "schema",
              "type": "bytes32"
            },
            {
              "internalType": "uint64",
              "name": "time",
              "type": "uint64"
            },
            {
              "internalType": "uint64",
              "name": "expirationTime",
              "type": "uint64"
            },
            {
              "internalType": "uint64",
              "name": "revocationTime",
              "type": "uint64"
            },
            {
              "internalType": "bytes32",
              "name": "refUID",
              "type": "bytes32"
            },
            {
              "internalType": "address",
              "name": "recipient",
              "type": "address"
            },
            {
              "internalType": "address",
              "name": "attester",
              "type": "address"
            },
            {
              "internalType": "bool",
              "name": "revocable",
              "type": "bool"
            },
            {
              "internalType": "bytes",
              "name": "data",
              "type": "bytes"
            }
          ],
          "internalType": "struct Attestation",
          "name": "attestation",
          "type": "tuple"
        }
      ],
      "name": "attest",
      "outputs": [
        {
          "internalType": "bool",
          "name": "",
          "type": "bool"
        }
      ],
      "stateMutability": "payable",
      "type": "function"
    },
    {
      "inputs": [],
      "name": "isPayable",
      "outputs": [
        {
          "internalType": "bool",
          "name": "",
          "type": "bool"
        }
      ],
      "stateMutability": "pure",
      "type": "function"
    },
    {
      "inputs": [
        {
          "components": [
            {
              "internalType": "bytes32",
              "name": "uid",
              "type": "bytes32"
            },
            {
              "internalType": "bytes32",
              "name": "schema",
              "type": "bytes32"
            },
            {
              "internalType": "uint64",
              "name": "time",
              "type": "uint64"
            },
            {
              "internalType": "uint64",
              "name": "expirationTime",
              "type": "uint64"
            },
            {
              "internalType": "uint64",
              "name": "revocationTime",
              "type": "uint64"
            },
            {
              "internalType": "bytes32",
              "name": "refUID",
              "type": "bytes32"
            },
            {
              "internalType": "address",
              "name": "recipient",
              "type": "address"
            },
            {
              "internalType": "address",
              "name": "attester",
              "type": "address"
            },
            {
              "internalType": "bool",
              "name": "revocable",
              "type": "bool"
            },
            {
              "internalType": "bytes",
              "name": "data",
              "type": "bytes"
            }
          ],
          "internalType": "struct Attestation[]",
          "name": "attestations",
          "type": "tuple[]"
        },
        {
          "internalType": "uint256[]",
          "name": "values",
          "type": "uint256[]"
        }
      ],
      "name": "multiAttest",
      "outputs": [
        {
          "internalType": "bool",
          "name": "",
          "type": "bool"
        }
      ],
      "stateMutability": "payable",
      "type": "function"
    },
    {
      "inputs": [
        {
          "components": [
            {
              "internalType": "bytes32",
              "name": "uid",
              "type": "bytes32"
            },
            {
              "internalType": "bytes32",
              "name": "schema",
              "type": "bytes32"
            },
            {
              "internalType": "uint64",
              "name": "time",
              "type": "uint64"
            },
            {
              "internalType": "uint64",
              "name": "expirationTime",
              "type": "uint64"
            },
            {
              "internalType": "uint64",
              "name": "revocationTime",
              "type": "uint64"
            },
            {
              "internalType": "bytes32",
              "name": "refUID",
              "type": "bytes32"
            },
            {
              "internalType": "address",
              "name": "recipient",
              "type": "address"
            },
            {
              "internalType": "address",
              "name": "attester",
              "type": "address"
            },
            {
              "internalType": "bool",
              "name": "revocable",
              "type": "bool"
            },
            {
              "internalType": "bytes",
              "name": "data",
              "type": "bytes"
            }
          ],
          "internalType": "struct Attestation[]",
          "name": "attestations",
          "type": "tuple[]"
        },
        {
          "internalType": "uint256[]",
          "name": "values",
          "type": "uint256[]"
        }
      ],
      "name": "multiRevoke",
      "outputs": [
        {
          "internalType": "bool",
          "name": "",
          "type": "bool"
        }
      ],
      "stateMutability": "payable",
      "type": "function"
    },
    {
      "inputs": [
        {
          "internalType": "bytes32",
          "name": "",
          "type": "bytes32"
        }
      ],
      "name": "projectToNumberOfRates",
      "outputs": [
        {
          "internalType": "uint256",
          "name": "",
          "type": "uint256"
        }
      ],
      "stateMutability": "view",
      "type": "function"
    },
    {
      "inputs": [
        {
          "internalType": "address",
          "name": "",
          "type": "address"
        }
      ],
      "name": "raterToNumberOfRates",
      "outputs": [
        {
          "internalType": "uint256",
          "name": "",
          "type": "uint256"
        }
      ],
      "stateMutability": "view",
      "type": "function"
    },
    {
      "inputs": [
        {
          "internalType": "address",
          "name": "",
          "type": "address"
        },
        {
          "internalType": "bytes32",
          "name": "",
          "type": "bytes32"
        }
      ],
      "name": "raterToProjectToRated",
      "outputs": [
        {
          "internalType": "bool",
          "name": "",
          "type": "bool"
        }
      ],
      "stateMutability": "view",
      "type": "function"
    },
    {
      "inputs": [
        {
          "components": [
            {
              "internalType": "bytes32",
              "name": "uid",
              "type": "bytes32"
            },
            {
              "internalType": "bytes32",
              "name": "schema",
              "type": "bytes32"
            },
            {
              "internalType": "uint64",
              "name": "time",
              "type": "uint64"
            },
            {
              "internalType": "uint64",
              "name": "expirationTime",
              "type": "uint64"
            },
            {
              "internalType": "uint64",
              "name": "revocationTime",
              "type": "uint64"
            },
            {
              "internalType": "bytes32",
              "name": "refUID",
              "type": "bytes32"
            },
            {
              "internalType": "address",
              "name": "recipient",
              "type": "address"
            },
            {
              "internalType": "address",
              "name": "attester",
              "type": "address"
            },
            {
              "internalType": "bool",
              "name": "revocable",
              "type": "bool"
            },
            {
              "internalType": "bytes",
              "name": "data",
              "type": "bytes"
            }
          ],
          "internalType": "struct Attestation",
          "name": "attestation",
          "type": "tuple"
        }
      ],
      "name": "revoke",
      "outputs": [
        {
          "internalType": "bool",
          "name": "",
          "type": "bool"
        }
      ],
      "stateMutability": "payable",
      "type": "function"
    },
    {
      "inputs": [],
      "name": "version",
      "outputs": [
        {
          "internalType": "string",
          "name": "",
          "type": "string"
        }
      ],
      "stateMutability": "view",
      "type": "function"
    },
    {
      "stateMutability": "payable",
      "type": "receive"
    }
  ],
  "transactionHash": "0xf10027b2feb47ea72e434e96cc0d3debd502858585c446e08d34ce5768a62cba",
  "args": [
    "0x4200000000000000000000000000000000000021"
  ],
  "numDeployments": 1,
  "solcInputHash": "76216650bc154f4e5e6aee99879f096e",
  "bytecode": "0x61010060405234801561001157600080fd5b50604051610e60380380610e6083398101604081905261003091610079565b6001608052600360a052600060c052806001600160a01b038116610067576040516341bc07ff60e11b815260040160405180910390fd5b6001600160a01b031660e052506100a9565b60006020828403121561008b57600080fd5b81516001600160a01b03811681146100a257600080fd5b9392505050565b60805160a05160c05160e051610d7e6100e260003960006104e60152600061024001526000610217015260006101ee0152610d7e6000f3fe60806040526004361061008a5760003560e01c806391db0b7e1161005957806391db0b7e1461015f578063ba66851514610172578063ce46e046146101ad578063e49617e1146101c1578063e60c3505146101d457600080fd5b80630dddf5dc146100ad57806329b16867146100ed57806354fd4d501461011a57806388e5b2d91461013c57600080fd5b366100a857604051631574f9f360e01b815260040160405180910390fd5b600080fd5b3480156100b957600080fd5b506100da6100c836600461093b565b60026020526000908152604090205481565b6040519081526020015b60405180910390f35b3480156100f957600080fd5b506100da61010836600461096b565b60006020819052908152604090205481565b34801561012657600080fd5b5061012f6101e7565b6040516100e491906109dd565b61014f61014a366004610a3c565b61028a565b60405190151581526020016100e4565b61014f61016d366004610a3c565b610359565b34801561017e57600080fd5b5061014f61018d366004610aa8565b600160209081526000928352604080842090915290825290205460ff1681565b3480156101b957600080fd5b50600061014f565b61014f6101cf366004610ad2565b610418565b61014f6101e2366004610ad2565b610434565b60606102127f0000000000000000000000000000000000000000000000000000000000000000610448565b61023b7f0000000000000000000000000000000000000000000000000000000000000000610448565b6102647f0000000000000000000000000000000000000000000000000000000000000000610448565b60405160200161027693929190610b0e565b604051602081830303815290604052905090565b60006102946104db565b838281146102b55760405163251f56a160e21b815260040160405180910390fd5b3460005b828110156103495760008686838181106102d5576102d5610b68565b905060200201359050828111156102ff5760405163044044a560e21b815260040160405180910390fd5b61032c89898481811061031457610314610b68565b90506020028101906103269190610b7e565b82610526565b61033d576000945050505050610351565b909103906001016102b9565b506001925050505b949350505050565b60006103636104db565b838281146103845760405163251f56a160e21b815260040160405180910390fd5b3460005b828110156103495760008686838181106103a4576103a4610b68565b905060200201359050828111156103ce5760405163044044a560e21b815260040160405180910390fd5b6103fb8989848181106103e3576103e3610b68565b90506020028101906103f59190610b7e565b826106bd565b61040c576000945050505050610351565b90910390600101610388565b60006104226104db565b61042c8234610526565b90505b919050565b600061043e6104db565b61042c82346106bd565b6060600061045583610813565b600101905060008167ffffffffffffffff81111561047557610475610b9f565b6040519080825280601f01601f19166020018201604052801561049f576020820181803683370190505b5090508181016020015b600019016f181899199a1a9b1b9c1cb0b131b232b360811b600a86061a8153600a85049450846104a957509392505050565b336001600160a01b037f0000000000000000000000000000000000000000000000000000000000000000161461052457604051634ca8886760e01b815260040160405180910390fd5b565b6000808080610539610120870187610bb5565b8101906105469190610bfc565b9194509250905060006001816105636101008a0160e08b0161096b565b6001600160a01b031681526020808201929092526040908101600090812087825290925290205460ff169050806105f4577fae74c05e0f1698c0faa1f8f329cea782109e876bf8dd780b722732febebc7322846105c76101008a0160e08b0161096b565b604080519283526001600160a01b0390911660208301520160405180910390a160009450505050506106b7565b600060405180608001604052808681526020018960e001602081019061061a919061096b565b6001600160a01b0316815260ff86166020820152604001849052905061063f816108eb565b60016000806106556101008c0160e08d0161096b565b6001600160a01b03166001600160a01b0316815260200190815260200160002060008282546106849190610ce5565b909155505060008581526002602052604081208054600192906106a8908490610ce5565b90915550600196505050505050505b92915050565b60008080806106d0610120870187610bb5565b8101906106dd9190610bfc565b9194509250905060006001816106fa6101008a0160e08b0161096b565b6001600160a01b031681526020808201929092526040908101600090812087825290925290205460ff169050801561075f577feb7a661924eaedaf19f10f9dffec94a605e75d7a8dcdd9f3e7129e2ed7f9554e846105c76101008a0160e08b0161096b565b600060405180608001604052808681526020018960e0016020810190610785919061096b565b6001600160a01b0316815260ff8616602082015260400184905290506107aa816108eb565b60016000806107c06101008c0160e08d0161096b565b6001600160a01b03166001600160a01b0316815260200190815260200160002060008282546107ef9190610cf8565b909155505060008581526002602052604081208054600192906106a8908490610cf8565b60008072184f03e93ff9f4daa797ed6e38ed64bf6a1f0160401b83106108525772184f03e93ff9f4daa797ed6e38ed64bf6a1f0160401b830492506040015b6d04ee2d6d415b85acef8100000000831061087e576d04ee2d6d415b85acef8100000000830492506020015b662386f26fc10000831061089c57662386f26fc10000830492506010015b6305f5e10083106108b4576305f5e100830492506008015b61271083106108c857612710830492506004015b606483106108da576064830492506002015b600a83106106b75760010192915050565b7fba8dcc2580f5c202a3188a8087d8cc7d1ab60f90d97d5a957a807828a8d7f95781600001518260200151836040015184606001516040516109309493929190610d0b565b60405180910390a150565b60006020828403121561094d57600080fd5b5035919050565b80356001600160a01b038116811461042f57600080fd5b60006020828403121561097d57600080fd5b61098682610954565b9392505050565b60005b838110156109a8578181015183820152602001610990565b50506000910152565b600081518084526109c981602086016020860161098d565b601f01601f19169290920160200192915050565b60208152600061098660208301846109b1565b60008083601f840112610a0257600080fd5b50813567ffffffffffffffff811115610a1a57600080fd5b6020830191508360208260051b8501011115610a3557600080fd5b9250929050565b60008060008060408587031215610a5257600080fd5b843567ffffffffffffffff80821115610a6a57600080fd5b610a76888389016109f0565b90965094506020870135915080821115610a8f57600080fd5b50610a9c878288016109f0565b95989497509550505050565b60008060408385031215610abb57600080fd5b610ac483610954565b946020939093013593505050565b600060208284031215610ae457600080fd5b813567ffffffffffffffff811115610afb57600080fd5b8201610140818503121561098657600080fd5b60008451610b2081846020890161098d565b8083019050601760f91b8082528551610b40816001850160208a0161098d565b60019201918201528351610b5b81600284016020880161098d565b0160020195945050505050565b634e487b7160e01b600052603260045260246000fd5b6000823561013e19833603018112610b9557600080fd5b9190910192915050565b634e487b7160e01b600052604160045260246000fd5b6000808335601e19843603018112610bcc57600080fd5b83018035915067ffffffffffffffff821115610be757600080fd5b602001915036819003821315610a3557600080fd5b600080600060608486031215610c1157600080fd5b83359250602084013560ff81168114610c2957600080fd5b9150604084013567ffffffffffffffff80821115610c4657600080fd5b818601915086601f830112610c5a57600080fd5b813581811115610c6c57610c6c610b9f565b604051601f8201601f19908116603f01168101908382118183101715610c9457610c94610b9f565b81604052828152896020848701011115610cad57600080fd5b8260208601602083013760006020848301015280955050505050509250925092565b634e487b7160e01b600052601160045260246000fd5b818103818111156106b7576106b7610ccf565b808201808211156106b7576106b7610ccf565b8481526001600160a01b038416602082015260ff83166040820152608060608201819052600090610d3e908301846109b1565b969550505050505056fea2646970667358221220fdfbf379b53dedfe8738ee50a3aa9ef3424b4b22a5cc5790ee0d8efa911a0c1c64736f6c63430008190033",
  "devdoc": {
    "kind": "dev",
    "methods": {
      "attest((bytes32,bytes32,uint64,uint64,uint64,bytes32,address,address,bool,bytes))": {
        "params": {
          "attestation": "The new attestation."
        },
        "returns": {
          "_0": "Whether the attestation is valid."
        }
      },
      "isPayable()": {
        "returns": {
          "_0": "Whether the resolver supports ETH transfers."
        }
      },
      "multiAttest((bytes32,bytes32,uint64,uint64,uint64,bytes32,address,address,bool,bytes)[],uint256[])": {
        "params": {
          "attestations": "The new attestations.",
          "values": "Explicit ETH amounts which were sent with each attestation."
        },
        "returns": {
          "_0": "Whether all the attestations are valid."
        }
      },
      "multiRevoke((bytes32,bytes32,uint64,uint64,uint64,bytes32,address,address,bool,bytes)[],uint256[])": {
        "params": {
          "attestations": "The existing attestations to be revoked.",
          "values": "Explicit ETH amounts which were sent with each revocation."
        },
        "returns": {
          "_0": "Whether the attestations can be revoked."
        }
      },
      "revoke((bytes32,bytes32,uint64,uint64,uint64,bytes32,address,address,bool,bytes))": {
        "params": {
          "attestation": "The existing attestation to be revoked."
        },
        "returns": {
          "_0": "Whether the attestation can be revoked."
        }
      },
      "version()": {
        "returns": {
          "_0": "Semver contract version as a string."
        }
      }
    },
    "title": "DappRaterSchemaResolver",
    "version": 1
  },
  "userdoc": {
    "kind": "user",
    "methods": {
      "attest((bytes32,bytes32,uint64,uint64,uint64,bytes32,address,address,bool,bytes))": {
        "notice": "Processes an attestation and verifies whether it's valid."
      },
      "constructor": {
        "notice": "Creates a new DappRaterSchemaResolver instance."
      },
      "isPayable()": {
        "notice": "Checks if the resolver can be sent ETH."
      },
      "multiAttest((bytes32,bytes32,uint64,uint64,uint64,bytes32,address,address,bool,bytes)[],uint256[])": {
        "notice": "Processes multiple attestations and verifies whether they are valid."
      },
      "multiRevoke((bytes32,bytes32,uint64,uint64,uint64,bytes32,address,address,bool,bytes)[],uint256[])": {
        "notice": "Processes revocation of multiple attestation and verifies they can be revoked."
      },
      "revoke((bytes32,bytes32,uint64,uint64,uint64,bytes32,address,address,bool,bytes))": {
        "notice": "Processes an attestation revocation and verifies if it can be revoked."
      },
      "version()": {
        "notice": "Returns the full semver contract version."
      }
    },
    "notice": "A sample schema resolver that logs a uint256 input.",
    "version": 1
  },
  "storageLayout": {
    "storage": [
      {
        "astId": 2103,
        "contract": "contracts/DappRaterSchemaResolver.sol:DappRaterSchemaResolver",
        "label": "raterToNumberOfRates",
        "offset": 0,
        "slot": "0",
        "type": "t_mapping(t_address,t_uint256)"
      },
      {
        "astId": 2109,
        "contract": "contracts/DappRaterSchemaResolver.sol:DappRaterSchemaResolver",
        "label": "raterToProjectToRated",
        "offset": 0,
        "slot": "1",
        "type": "t_mapping(t_address,t_mapping(t_bytes32,t_bool))"
      },
      {
        "astId": 2113,
        "contract": "contracts/DappRaterSchemaResolver.sol:DappRaterSchemaResolver",
        "label": "projectToNumberOfRates",
        "offset": 0,
        "slot": "2",
        "type": "t_mapping(t_bytes32,t_uint256)"
      }
    ],
    "types": {
      "t_address": {
        "encoding": "inplace",
        "label": "address",
        "numberOfBytes": "20"
      },
      "t_bool": {
        "encoding": "inplace",
        "label": "bool",
        "numberOfBytes": "1"
      },
      "t_bytes32": {
        "encoding": "inplace",
        "label": "bytes32",
        "numberOfBytes": "32"
      },
      "t_mapping(t_address,t_mapping(t_bytes32,t_bool))": {
        "encoding": "mapping",
        "key": "t_address",
        "label": "mapping(address => mapping(bytes32 => bool))",
        "numberOfBytes": "32",
        "value": "t_mapping(t_bytes32,t_bool)"
      },
      "t_mapping(t_address,t_uint256)": {
        "encoding": "mapping",
        "key": "t_address",
        "label": "mapping(address => uint256)",
        "numberOfBytes": "32",
        "value": "t_uint256"
      },
      "t_mapping(t_bytes32,t_bool)": {
        "encoding": "mapping",
        "key": "t_bytes32",
        "label": "mapping(bytes32 => bool)",
        "numberOfBytes": "32",
        "value": "t_bool"
      },
      "t_mapping(t_bytes32,t_uint256)": {
        "encoding": "mapping",
        "key": "t_bytes32",
        "label": "mapping(bytes32 => uint256)",
        "numberOfBytes": "32",
        "value": "t_uint256"
      },
      "t_uint256": {
        "encoding": "inplace",
        "label": "uint256",
        "numberOfBytes": "32"
      }
    }
  }
}